:020000040800F2
:1000000000000120A5020008A9020008AB020008B8
:10001000C1020008C3020008D90200080000000065
:10002000000000000000000000000000EF020008D7
:10003000F102000800000000F30200083D0600087D
:100040000903000809030008090300080903000860
:100050000903000809030008090300080903000850
:100060000903000809030008090300080903000840
:100070000903000809030008090300080903000830
:100080000903000809030008090300080903000820
:100090000903000809030008090300080903000810
:1000A0000903000809030008090300080903000800
:1000B00009030008090300080903000809030008F0
:1000C00009030008090300080903000809030008E0
:1000D00009030008090300080903000809030008D0
:1000E00009030008090300080903000809030008C0
:1000F00009030008090300080903000809030008B0
:10010000090300080903000809030008090300089F
:10011000090300080903000809030008090300088F
:10012000090300080903000809030008090300087F
:1001300000000000000000000000000000000000BF
:1001400000000000000000000000000000000000AF
:10015000000000000000000000000000000000009F
:10016000000000000000000000000000000000008F
:10017000000000000000000000000000000000007F
:10018000000000000000000000000000000000006F
:10019000000000000000000000000000000000005F
:1001A000000000000000000000000000000000004F
:1001B000000000000000000000000000000000003F
:1001C000000000000000000000000000000000002F
:1001D000000000000000000000000000000000001F
:1001E0005FF8E0F107B500F061F9234A234B244999
:1001F0008B4204D252F8041F43F8041BF7E7214B4B
:10020000214A934203D2002243F8042BF8E700F07E
:1002100059F9684601A900F041F91C4B1C4C1E46D7
:10022000E41AA4100025A54204DA56F825309847B0
:100230000135F8E7174B184C1E46E41AA4100025A8
:10024000A54204DA56F8253098470135F8E79DE8CD
:10025000030000F047FF114B06461D46104CE41A00
:10026000A410002C04DD013C55F824309847F8E731
:10027000304600F0ECF800BF3C2B000800000020E6
:1002800084000020840000202001002034030008A6
:1002900034030008340300083C0300083C03000852
:1002A0003C03000814480047FEE71EF0040F0CBF93
:1002B000EFF30880EFF309807146104A1047FEE71C
:1002C000FEE71EF0040F0CBFEFF30880EFF3098088
:1002D00071460B4A1047FEE71EF0040F0CBFEFF308
:1002E0000880EFF309807146064A1047FEE7FEE7F3
:1002F000FEE7FEE770470000E5010008BF020008C6
:0A030000D7020008ED020008FEE736
:10030C00402B00080000002084000020402B000837
:10031C0000000000000000008400002020010020EC
:10032C0000000000000000009D1E0008611F000876
:10033C00CA78F0B5D40648BF8C780D8802F00F034C
:10034C0048BF234315F0FF0F1DD001680024012680
:10035C00A64006EA0507B74211D14FEA840E0F26D4
:10036C0006FA0EF621EA0601282A03FA0EF641EAED
:10037C00060101D1476102E0482A08BF0761013438
:10038C00082CE4D10160FF2D1FD94168002404F131
:10039C0008070126BE4006EA0507B74211D14FEA0D
:1003AC00840E0F2606FA0EF621EA0601282A03FA15
:1003BC000EF641EA060101D1476102E0482A08BF66
:1003CC0007610134082CE2D14160F0BD0161704736
:1003DC0041617047044B9A6909B1104301E022EA6C
:1003EC0000009861704700BF0010024003884A88E3
:1003FC0010B503F441540B8813438A881343CA88FD
:10040C0013430A8913434A8913438A891343CA89BC
:10041C00134323439BB20380838B23F400631B049D
:10042C001B0C83830B8A038210BD038819B19BB20A
:10043C0043F0400303E023F040031B041B0C038038
:10044C00704708B500F03AF808B50120FFF7F9FF3E
:10045C0008B50C4B1A680AB90B4A1A601A68C31C07
:10046C0023F00303094913448B4206D902F0B4F874
:10047C000C2303604FF0FF3008BD024910460B609F
:10048C0008BD00BF840000202001002000FC0020DB
:10049C0001230360014B0B60704700BF000000207C
:1004AC0008B500F01DF8024B024A9A6008BD00BF67
:1004BC0000ED00E00000000800F08CB8BFF34F8F97
:1004CC000549064BCA6802F4E0621343CB60BFF3E4
:1004DC004F8F00BFFDE700BF00ED00E00400FA0500
:1004EC00384B82B01A6842F001021A605968364AD9
:1004FC000A405A601A6822F0847222F480321A6020
:10050C001A6822F480221A605A6822F4FE025A6099
:10051C004FF41F029A600022009201921A6842F472
:10052C0080321A601A6802F400320192009A013289
:10053C000092019A1AB9009AB2F5A06FF2D11A681A
:10054C0012F4003218BF01220192019A012A05D03F
:10055C001E4B4FF000629A6002B070471C4A116843
:10056C0041F010011160116821F003011160116854
:10057C0041F0020111605A685A605A685A605A6810
:10058C0042F480625A605A6822F47C125A605A68AB
:10059C0042F4E8125A601A6842F080721A601968C4
:1005AC00084A8901FBD5516821F00301516051685B
:1005BC0041F0020151605A6802F00C02082AFAD18B
:1005CC00C6E700BF001002400000FFF800ED00E09D
:1005DC0000200240114A124B516801F00C01042911
:1005EC0001D0082901D00F490EE051685068C1F3C1
:1005FC008341C00301F1020102D55068800301D58B
:10060C00094800E007484143196052680749C2F3A2
:10061C000312895C1A68CA401A60704700100240C5
:10062C001800002000127A0000093D00080000208C
:10063C00024A136801331360704700BF9800002012
:10064C0030B5104D83B005200121FFF7C3FE032404
:10065C00284601A90C221023ADF804208DF8073090
:10066C008DF80640FFF764FEE0221823284601A906
:10067C008DF80640ADF804208DF80730FFF758FED2
:10068C0003B030BD0008014070B5134C86B04FF478
:10069C0080500121FFF79EFE4FF482760023282222
:1006AC00204601A94FF44075ADF80430ADF8083080
:1006BC00ADF80C30ADF80A30ADF81230ADF81020B2
:1006CC00ADF80660ADF80E50FFF790FE2046012104
:1006DC00FFF7ABFE06B070BD0030014010B508212D
:1006EC0004461F48FFF774FE1E4BA4B21A469C81A9
:1006FC0013899807FCD51B4A1389D907FCD51949CE
:10070C000B89184A03F080039BB2002BF8D11146D9
:10071C00908993810B899B07FCD5124A1389DC07BE
:10072C00FCD510490B890F4A03F080039BB2002BB8
:10073C00F8D11146908993810B899807FCD5094A09
:10074C001389D907FCD507490B89064A1B06FBD42C
:10075C00938903480821BDE81040FFF737BE00BF5E
:10076C000008014000300140034670B5020C82B015
:10077C00060A62F07F0202AC0D461A4808218DF879
:10078C00056004F8043D8DF80620FFF721FE164B9A
:10079C000DF107011E4611F8012D9A811A89920755
:1007AC00FCD51A89D007FCD51A890F481206FBD440
:1007BC00A142B289EFD10246ADB285811389980767
:1007CC00FCD5094A1389D907FCD507490B89064A78
:1007DC001B06FBD493890348082102B0BDE8704086
:1007EC00FFF7F4BD0008014000300140F0B50346AE
:1007FC000D4683B0020C62F07F020F0A060A082134
:10080C001E4802AC8DF806208DF800508DF8017052
:10081C008DF8056004F8043DFFF7DAFD184A0DF178
:10082C000701104611F8013D938113899F07FCD5F0
:10083C001389DE07FCD5138903F080039BB2002BD0
:10084C00F9D1A1428589EDD10D4A10461DF803104E
:10085C00918111898D07FCD51189CC07FCD51189A3
:10086C000906FCD4012B818901D00123EEE7034852
:10087C00082103B0BDE8F040FFF7A8BD0008014017
:10088C00003001400B460246F0B5050C83B04FEA30
:10089C00116C4FEA114E0F0A060A0821204802ACCF
:1008AC0065F07F058DF804308DF802508DF807C087
:1008BC008DF806E08DF805708DF8016004F8082DB0
:1008CC00FFF786FD174B0DF10301184611F8012DAA
:1008DC009A811A899507FCD51A89D207FCD51A89F1
:1008EC001706FCD4A1428289F0D10E4B02AC1846FB
:1008FC0001A911F8012B9A811A899607FCD51A893E
:10090C00D507FCD51A891206FCD4A1428289F0D1F4
:10091C000348082103B0BDE8F040FFF757BD00BF06
:10092C0000080140003001402DE9F04104464A4ED8
:10093C000B6832680F4602F584106FF0F30113F860
:10094C000C5CFFF79FFF3268F021131DB3F5805F3D
:10095C0028BFA2F6FC7303F584103360FFF746FF43
:10096C0032682146931CB3F5805F28BFA2F6FE7354
:10097C0003F584103360FFF739FF32681F21931C95
:10098C00B3F5805F28BFA2F6FE7303F584103360C5
:10099C00FFF72CFF32684FF40071931CB3F5805FA6
:1009AC0028BFA2F6FE7303F584103360FFF71EFF19
:1009BC0032682021931CB3F5805F28BFA2F6FE732A
:1009CC0003F584103360FFF7CFFE3368581CB0F585
:1009DC00805F28BFA3F6FF7030604DB33B6800F515
:1009EC00841453F80C2C92B305F1FF385FFA88F895
:1009FC00002507E03B68013553F80C2C00F58414F6
:100A0C00954225D253F8042C002A03DB384601F01A
:100A1C0087F93B682046595DFFF7A6FE3368581CE2
:100A2C00B0F5805F28BFA3F6FF7045453060E1D17B
:100A3C0000F584100021FFF7D9FE3268931CB3F542
:100A4C00805F28BFA2F6FE733360BDE8F0811546C7
:100A5C002946024801F00EF88C000020C02700083F
:100A6C00034670B582B0020A050C02AC244808217A
:100A7C008DF806508DF8052004F8043DFFF7A8FC0E
:100A8C00204A0DF10700154610F8013D938113899A
:100A9C009B07FCD51389DE07FCD51389194903F094
:100AAC0080039BB2002BF8D1A042AE89ECD10A4650
:100ABC008B8113899D07FCD5124A1389DC07FCD561
:100ACC0010490B890F4A03F080039BB2002BF8D11D
:100ADC001146908993810B899807FCD5094A138993
:100AEC00D907FCD507490B89064A1B06FBD40448D9
:100AFC0008219489FFF76AFCA4B2E0B202B070BD81
:100B0C0000080140003001402DE9F04F83B09022E5
:100B1C006C242423AA4802AF082107F8044D8DF851
:100B2C0006208DF80530FFF753FCA64A0DF107009F
:100B3C00144610F8013D938113899E07FCD5138947
:100B4C00DD07FCD513899F4903F080039BB2002B72
:100B5C00F8D1B842A589ECD10A468B811389980744
:100B6C00FCD5984A1389D907FCD5964A1389954C1C
:100B7C001B06FBD492480821A3899025FFF726FC7D
:100B8C002422C4238E4808218DF805208DF80650A8
:100B9C008DF80430FFF71CFC22460DF1070010F80D
:100BAC00013D938113899E07FCD51389DD07FCD584
:100BBC001389844903F080039BB2002BF8D1B8420F
:100BCC00A589ECD10A468B8113899907FCD57D4AFE
:100BDC001389DB07FCD57B4B1D897A4C05F080050E
:100BEC00ADB2002DF8D176480821A389FFF7EEFBB2
:100BFC0075484FF4F071FFF7F9FD74484FF4097123
:100C0C00FFF7F4FD72482B21FFF7F0FD29467148E0
:100C1C00FFF7ECFD70482921FFF7E8FD6F484FF412
:100C2C008871FFF7E3FD6E484FF49271FFF7DEFD1C
:100C3C006C480C21FFF7DAFD29466B48FFF7D6FD0F
:100C4C006A480A21FFF7D2FD9025242260235C48D4
:100C5C0008218DF805208DF806508DF80430FFF72B
:100C6C00B7FB22460DF1070010F8013D9381138963
:100C7C009E07FCD51389DD07FCD51389514903F078
:100C8C0080039BB2002BF8D1B842A589ECD10A465F
:100C9C008B8113899C07FCD54A4A1389D807FCD54C
:100CAC00484A1389474C1906FBD445480821A389A7
:100CBC009025FFF78BFB68232422414808218DF8EF
:100CCC0004308DF806508DF80520FFF781FB234684
:100CDC000DF1070010F8012D9A811A899207FCD5A5
:100CEC001A89D607FCD51A8936491506FBD4B842A1
:100CFC00A289EFD10A4601238B8113899807FCD571
:100D0C00304A1389D907FCD52E4A13892D4C1B0662
:100D1C00FBD42B480821A3899025FFF757FB2422ED
:100D2C00F023274808218DF805208DF806508DF802
:100D3C000430FFF74DFB22460DF1070010F8013D82
:100D4C00938113899E07FCD51389DD07FCD5138984
:100D5C001C4903F080039BB2002BF8D1B842A58943
:100D6C00ECD10A468B8113899907FCD5154A138956
:100D7C00DB07FCD5134B1D89124C05F08005ADB279
:100D8C00002DF8D10E480821A389FFF71FFB294637
:100D9C001748FFF72BFD902524227C2308480821B7
:100DAC008DF805208DF806508DF80430FFF710FBF8
:100DBC0022460DF1070010F8013D93811AE000BFA7
:100DCC00000801400030014030241000282410009D
:100DDC002C2410003424100038241000442410005B
:100DEC003C24100040241000482410004C24100017
:100DFC000425100013899E07FCD51389DD07FCD54B
:100E0C0013899B4903F080039BB2002BF8D1B842A5
:100E1C00A589D0D10A468B8113899807FCD5944AB1
:100E2C001389D907FCD5924A1389914C1B06FBD424
:100E3C0090480821A3899025FFF7C8FA2422802323
:100E4C008C4808218DF805208DF806508DF804305B
:100E5C00FFF7BEFA22460DF1070010F8013D938111
:100E6C0013899E07FCD51389DD07FCD513898049AE
:100E7C0003F080039BB2002BF8D1B842A589ECD1CA
:100E8C000A468B8113899C07FCD5794A1389D807AC
:100E9C00FCD5774B1D89764C05F08005ADB2002D45
:100EAC00F8D174480821A389FFF790FA72484FF4DF
:100EBC00C041FFF79BFC4FF480104FF00071FFF71F
:100ECC00E1FC6E486E49FFF7DDFC29466D48FFF7E3
:100EDC00D9FC02216C48FFF7D5FC6C48FFF7C0FD2C
:100EEC006B4E60F07F009023C5B22422614808212C
:100EFC008DF806308DF8043035708DF80520FFF72D
:100F0C0067FA23460DF1070010F8012D9A811A8912
:100F1C009107FCD51A89D207FCD51A8954491606B3
:100F2C00FBD4B842A289EFD10A46ADB28D811389A8
:100F3C009C07FCD54E4A1389D807FCD54C4A13891B
:100F4C004B4C1906FBD44B480821A3899025FFF77D
:100F5C003DFA6C232422474808218DF804308DF883
:100F6C0006508DF80520FFF733FA23460DF10700E4
:100F7C0010F8012D9A811A899207FCD51A89D60787
:100F8C00FCD51A893A491506FBD4B842A289EFD18F
:100F9C000A4605238B8113899C07FCD5344A138997
:100FAC00D807FCD5324A1589314B05F08005ADB216
:100FBC00002DF8D11C46DFF8DCB02E4808219B89A7
:100FCC002646A246D946D846FFF700FA24224FF00F
:100FDC00900EC423274808218DF805208DF806E0D3
:100FEC008DF80430FFF7F4F90DF1070212F8013D0A
:100FFC00A38123899907FCD52389DB07FCD5238999
:10100C001806FCD4BA42B389F0D1ABB2AAF80C30B2
:10101C0023899907FCD52389DA07FCD523891B067C
:10102C00FCD408211348B389FFF7D0F9DBF8003062
:10103C00DBF80010DBF800200A31914209D9DBF80B
:10104C00002093420ED90135812DBFD103B0BDE8EC
:10105C00F08FDBF800209342FBD9D8F800209142A6
:10106C00F7D8F0E7D9F800209142E8D8EBE700BFB9
:10107C0000300140000801408424100004001000DE
:10108C0007000026080010005024100090241000C7
:10109C0090000020980000200E4B10B41A681968BC
:1010AC001C68084484421C4605D2196891420BD234
:1010BC005DF8044B704719689142FCD22168884254
:1010CC00F9D85DF8044B704721688842EDD85DF87B
:1010DC00044B7047980000202DE9F04F87B0FFF7C4
:1010EC00FFF9FFF777FA7A4B7A4A1B68A2FB0323C6
:1010FC009B09013BB3F1807F09D2774A774CF025ED
:10110C0000200721536084F8235090601160FFF792
:10111C0097FAFFF7B9FA72480821FFF757F904213B
:10112C006F48FFF753F94FF47A70FFF7B5FF0020C3
:10113C00FFF7D4FA0520FFF7AFFF6220FFF7CEFAD6
:10114C000520FFF7A9FF6748FFF78AFC0446042136
:10115C006348FFF73DF9644F7C2C0CBF4FF496733A
:10116C004FF47A730193614EFFF7CEFCDFF8888160
:10117C003B685F4C05ADD8F800209A4200F0D08057
:10118C004FF0100E2422E423554808218DF816E068
:10119C008DF815208DF81430FFF71AF9554A0DF11A
:1011AC001700964610F8013D938113899B07FCD5D7
:1011BC001389D907FCD513894E4903F080039BB2E0
:1011CC00002BF8D1A842BEF80CC0EBD10A468B819B
:1011DC0013899B07FCD5474A1389D807FCD5454A88
:1011EC001389444903F080039BB2002BF8D11A46B3
:1011FC000B469646184689890DF11009A3F80CE0A8
:10120C0019898907FCD51989C907FCD519890906DB
:10121C00FCD48189012A09F8021001D00122EDE7E2
:10122C009DF810309DF811A02D48082143EA0A2A98
:10123C00FFF7CCF810212422E8238DF8161028484B
:10124C0008218DF81520C8F800A08DF81430FFF790
:10125C00BFF8284A0DF11701964611F8013D93810C
:10126C0013899B07FCD51389D807FCD51389214812
:10127C0003F080039BB2002BF8D1A942BEF80CC03E
:10128C00EBD10246838113899B07FCD5194A13893C
:10129C00D807FCD5174A1389164903F080039BB273
:1012AC00002BF8D10A469E4610468989A2F80CE01C
:1012BC0011898907FCD51189C907FCD51189090643
:1012CC00FCD48189012B09F8031017D00123EDE719
:1012DC0018000020D34D621010E000E000ED00E09B
:1012EC0000080140002410009C0000209800002001
:1012FC008C00002000300140940000209DF810303C
:10130C009DF81190B74843EA09290821FFF75EF8C8
:10131C004B46D8F80020C7F800909A427FF430AFC3
:10132C0003F584106FF0FF012360FFF7ABFA22681E
:10133C00AD49131DB3F5805F28BFA2F6FC7303F50E
:10134C0084102360FFF79EFA2268A849131DB3F599
:10135C00805F28BFA2F6FC7303F584102360FFF7AF
:10136C0091FA2268A249131DB3F5805F28BFA2F63B
:10137C00FC7303F584102360FFF784FA22689D49FF
:10138C00131DB3F5805F28BFA2F6FC73284603AA91
:10139C00236000F005FD00202946FFF7C5FA059BE8
:1013AC00954AA3F10C00904240F0388303AA93496C
:1013BC00284600F0F5FC32202946FFF7B5FA059BCC
:1013CC008D4AA3F10C00904240F01C8303AA8C4977
:1013DC00284600F0E5FC2068059B00F584106FF0B2
:1013EC00F30113F80CBCFFF74DFA22681921131DF9
:1013FC00B3F5805F28BFA2F6FC7303F5841023605D
:10140C00FFF7F4F922686421931CB3F5805F28BFC1
:10141C00A2F6FE7303F584102360FFF7E7F9226848
:10142C001F21931CB3F5805F28BFA2F6FE7303F552
:10143C0084102360FFF7DAF922680021931CB3F5BE
:10144C00805F28BFA2F6FE7303F584102360FFF7BC
:10145C00CDF922682021931CB3F5805F28BFA2F63A
:10146C00FE7303F584102360FFF77EF92368581C84
:10147C00B0F5805F28BFA3F6FF702060BBF1000FB2
:10148C0030D0059B00F5841953F80CACBAF1000F61
:10149C0000F0DF820BF1FF3B5FFA8BFB4FF0000A91
:1014AC0009E0059B0AF1010A53F80C2C00F584198C
:1014BC00524540F2D48253F8042C002A03DB284610
:1014CC0000F02EFC059B484613F80A10FFF74CF968
:1014DC002368581CB0F5805F28BFA3F6FF70DA456F
:1014EC002060DED100F584100021FFF77FF922681F
:1014FC00931CB3F5805F28BFA2F6FE73059A236098
:10150C003D4BA2F10C00984240F0708203AA3D4979
:10151C00284600F045FC2068059B00F584106FF010
:10152C00F30113F80CBCFFF7ADF92268AF21131DC2
:10153C00B3F5805F28BFA2F6FC7303F5841023601B
:10154C00FFF754F922686421931CB3F5805F28BF20
:10155C00A2F6FE7303F584102360FFF747F92268A7
:10156C001F21931CB3F5805F28BFA2F6FE7303F511
:10157C0084102360FFF73AF922680021931CB3F51D
:10158C00805F28BFA2F6FE7303F584102360FFF77B
:10159C002DF922682021931CB3F5805F28BFA2F699
:1015AC00FE7303F584102360FFF7DEF82368581CE4
:1015BC00B0F5805F28BFA3F6FF702060BBF1000F71
:1015CC0043D0059B00F5841953F80CACBAF1000F0D
:1015DC0000F03F820BF1FF3B5FFA8BFB4FF0000AF0
:1015EC001CE000BF000801400101010207000026B9
:1015FC0000FF640404280008A00000201028000844
:10160C00142800081C280008059B0AF1010A53F84D
:10161C000C2C00F58419524540F2218253F8042C0D
:10162C00002A03DB284600F07BFB059B484613F899
:10163C000A10FFF799F82368581CB0F5805F28BF93
:10164C00A3F6FF70DA452060DED100F5841000218E
:10165C00FFF7CCF82268931CB3F5805F28BFA2F685
:10166C00FE73059A2360CC4BA2F10C00984240F01B
:10167C00B18103AAC949284600F092FB2068059B5A
:10168C0000F584106FF0F30113F80CBCFFF7FAF8B7
:10169C0022683221131DB3F5805F28BFA2F6FC73BC
:1016AC0003F584102360FFF7A1F82268C821931C6E
:1016BC00B3F5805F28BFA2F6FE7303F58410236098
:1016CC00FFF794F822681F21931CB3F5805F28BFA5
:1016DC00A2F6FE7303F584102360FFF787F82268E7
:1016EC000021931CB3F5805F28BFA2F6FE7303F5AF
:1016FC0084102360FFF77AF822682021931CB3F53D
:10170C00805F28BFA2F6FE7303F584102360FFF7F9
:10171C002BF82368581CB0F5805F28BFA3F6FF7028
:10172C002060BBF1000F30D0059B00F5841953F8F5
:10173C000CACBAF1000F00F08C810BF1FF3B5FFA9F
:10174C008BFB4FF0000A09E0059B0AF1010A53F8E4
:10175C000C2C00F58419524540F2818153F8042C6D
:10176C00002A03DB284600F0DBFA059B484613F8F9
:10177C000A10FEF7F9FF2368581CB0F5805F28BFEC
:10178C00A3F6FF70DA452060DED100F5841000214D
:10179C00FFF72CF82268931CB3F5805F28BFA2F6E4
:1017AC00FE73059A23607C4BA2F10C00984240F02A
:1017BC00058103AA7A49284600F0F2FA2068059BB5
:1017CC0000F584106FF0F30113F80CBCFFF75AF816
:1017DC002268B421131DB3F5805F28BFA2F6FC73F9
:1017EC0003F584102360FFF701F82268C821931CCD
:1017FC00B3F5805F28BFA2F6FE7303F58410236057
:10180C00FEF7F4FF22681F21931CB3F5805F28BFFD
:10181C00A2F6FE7303F584102360FEF7E7FF22683F
:10182C000021931CB3F5805F28BFA2F6FE7303F56D
:10183C0084102360FEF7DAFF22682021931CB3F595
:10184C00805F28BFA2F6FE7303F584102360FEF7B9
:10185C008BFF2368581CB0F5805F28BFA3F6FF7080
:10186C002060BBF1000F30D0059B00F5841953F8B4
:10187C000CACBAF1000F00F0EC800BF1FF3B5FFAFF
:10188C008BFB4FF0000A09E0059B0AF1010A53F8A3
:10189C000C2C00F58419924580F0E18053F8042C4F
:1018AC00002A03DB284600F03BFA059B484613F858
:1018BC000A10FEF759FF2368581CB0F5805F28BF4B
:1018CC00A3F6FF70DA452060DED100F5841000210C
:1018DC00FEF78CFF23683049981CB0F5805F28BF59
:1018EC00A3F6FE70059B2060A3F10C028A42DFF880
:1018FC00C09040F09F8000F584100021FEF7C2FFDD
:10190C0022686FF0FE01131DB3F5805F28BFA2F6AD
:10191C00FC7303F584102360FEF7B4FF22682148A2
:10192C00131DB3F5805F28BFA2F6FC731946236024
:10193C00FEF75CFF1C480421FEF748FD3368019854
:10194C0031683268014491421ED93268934231D9D0
:10195C0015480421FEF73CFD336801983168326864
:10196C000144914208D93268934202D832689142BC
:10197C00F9D83B68FFF7FFBB32689342FCD90B4A9E
:10198C0012689142F8D8F4E732689342FCD9074ABE
:10199C0012689142F8D8DBE7A00000202C28000840
:1019AC0034280008E82410000008014098000020AA
:1019BC008C00002032689142C7D8C9E752F8043C29
:1019CC00591E002B42F8041C3FF7F3AE04A900F09B
:1019DC00BFF9EEE652F8043C591E002B42F8041CE9
:1019EC003FF747AE04A900F0B3F942E652F8043CC5
:1019FC00591E002B42F8041C3FF788AD04A900F0D7
:101A0C00A7F983E553F8042C511E002A43F8041C53
:101A1C003FF7DCAC04A900F09BF9D7E453F8042C95
:101A2C00511E002A43F8041C3FF7C0AC04A900F077
:101A3C008FF9BBE453F8041C481E002943F8040C2E
:101A4C0002DDD9F8000056E7104604A900F080F931
:101A5C00F7E7D64651467246024800F00BF8964618
:101A6C00F8E700BFC027000808B5FEF7EDFC08B585
:101A7C00FEF7EAFC0FB480B582B000AF07F110049A
:101A8C0054F8045B284600F08DFE014600F20E234C
:101A9C0023F00703ADEB030D01F500712A46234635
:101AAC0068467C6000F04EF8FEF7CEFC804680B5B0
:101ABC009CB000AF0E1A6C220E49381D00F0A2FD2E
:101ACC0006F17A0323F00703ADEB030D391D6B22EE
:101ADC00684600F097FD751C0DF16B0041463246CF
:101AEC0000F090FD6D44002385F86A306846FFF7DE
:101AFC00BBFF00BF382800082DE9F04184B0104B23
:101B0C0004AF1B6888B00093022301930123029356
:101B1C00064600230AA8884600F06AF9804504AD01
:101B2C00044607D3C0F1180129443046224600F080
:101B3C0069FD01E04FF0FF342046BD46BDE8F08161
:101B4C001C0000202DE9F0410646154604460139DB
:101B5C0047182A78A2B3BC422ED2252A23D16A7800
:101B6C00732A05D07A2A0ED0252A1CD101351AE009
:101B7C00191D1B68013B13F8012FD2B1BC421BD0BD
:101B8C0004F8012BF7E7AA78752A0CD12046391BEB
:101B9C001A6803F10408FFF7AFFF00280CDD0444BA
:101BAC0003354346D5E72A78013404F8012C013576
:101BBC00CFE702350B46CCE730462146FFF776FFE0
:101BCC002270A01BBDE8F081012A10B502D10A7861
:101BDC00027010BDBDE8104000F014BD012A10B514
:101BEC0002D10A78027010BDBDE8104000F015BD9E
:101BFC0008B5521AFFF7E8FF08BD0000044B9842E5
:101C0C001FBF002301600918836018BF0B73704756
:101C1C00A0000020134B10B59842044602D912487C
:101C2C00FFF725FF884203D94B00984238BF1C466A
:101C3C0004F11D03B3F5805F04F10D000CD98C4247
:101C4C000AD9C3F30B0304F58054E41A054B9C42E8
:101C5C0028BF1C4604F10D0000F0B9F800224460C6
:101C6C00826010BDFCFFFF3F48290008054A9042E6
:101C7C0006D08268511E002A816001DC00F0A5B8F4
:101C8C00704700BFA00000202DE9F74F0668C2EB9B
:101C9C00030956F80C5C0C46A9446D1A56F8081C3E
:101CAC000746894592469846A5EB020517D856F883
:101CBC00043C002B13DC55B1C24508D008EB0400E2
:101CCC000AEB0401304431442A46FFF787FF386899
:101CDC0049460C38FFF792FF03B0BDE8F08F484639
:101CEC0001AAFFF797FF834600F10C0624B130469A
:101CFC0039682246FFF768FF55B104F10C003B68C8
:101D0C0040440AEB0401584419442A46FFF75CFF8F
:101D1C00386801A90C38FFF7A9FF3E60D7E700002F
:101D2C0003680A4A10B5934204460DD053F8043C9C
:101D3C00002B04DD00210A460B46FFF7A5FF2368A4
:101D4C004FF0FF3243F8042C10BD00BFAC00002054
:101D5C0000F03BB888422DE9F04105460C4601D114
:101D6C000D4E15E018B914B10C48FFF77DFE671B3A
:101D7C0000213846FFF74EFF804600F10C06304636
:101D8C0029462246FFF734FF40463946FFF736FF17
:101D9C003046BDE8F08100BFAC000020FB290008F4
:101DAC0070B5054616460C4621B1084600F0FAFC03
:101DBC00211801E04FF0FF31204632464FF000036E
:101DCC00FFF7C8FF2860284670BD00F013BC10B5A3
:101DDC00002814BF04460124204600F003FC30B94F
:101DEC0000F01AF908B9FEF72FFB8047F4E710BD95
:101DFC002DE9F04114469DF820201D460746DDF8DC
:101E0C001880079BB2B10646204629460A220023B9
:101E1C0000F00AF942441379204606F8013D2946A0
:101E2C0000230A2200F000F904460D4654EA05038B
:101E3C00EAD12AE003F04A02402A10D1064604F007
:101E4C00070343441B79EA0806F8013DE30843EA1B
:101E5C0045731C46154654EA0503F0D115E00646B9
:101E6C0013F4804F14BF1421042104F00F0308EB6A
:101E7C000102D35C2A0906F8013D230943EA0573E4
:101E8C001C46154654EA0503EFD1B81BBDE8F0819A
:101E9C00244B1A68D0075CBF01221A60224B1A68C7
:101EAC00D1075CBF01221A60204B1A68D2075CBFB5
:101EBC0001221A601E4B1A68D0075CBF01221A60FF
:101ECC001C4B1A68D1075CBF01221A601A4B1A68A6
:101EDC00D2075CBF01221A60184B1A68D0075CBF8E
:101EEC0001221A60164B1A68D1075CBF01221A60D6
:101EFC00144B1A68D2075CBF01221A60124B1A6885
:101F0C00D0075CBF01221A60104B1A68D1075CBF66
:101F1C0001221A600E4B1A68D2075CBF01221A60AC
:101F2C00704700BFDC000020D8000020D400002047
:101F3C00D0000020CC000020C8000020C4000020ED
:101F4C00C0000020BC000020B8000020B40000201D
:101F5C00B0000020244B1A68D0075CBF01221A6025
:101F6C00224B1A68D1075CBF01221A60204B1A68F9
:101F7C00D2075CBF01221A601E4B1A68D0075CBFE7
:101F8C0001221A601C4B1A68D1075CBF01221A602F
:101F9C001A4B1A68D2075CBF01221A60184B1A68D8
:101FAC00D0075CBF01221A60164B1A68D1075CBFC0
:101FBC0001221A60144B1A68D2075CBF01221A6006
:101FCC00124B1A68D0075CBF01221A60104B1A68BA
:101FDC00D1075CBF01221A600E4B1A68D2075CBF96
:101FEC0001221A60704700BF0C010020080100207C
:101FFC000401002000010020FC000020F80000205B
:10200C00F4000020F0000020EC000020E80000208C
:10201C00E4000020E0000020024B1868BFF35F8F43
:10202C00704700BF1001002053B94AB9002908BFFE
:10203C0000281CBF4FF0FF314FF0FF3000F03CB8D0
:10204C0082B0EC462DE9005000F01EF8DDF804E0FB
:10205C0002B00CBC704700BF2DE9F041069C9046C5
:10206C0006460F461D4600F029F808FB01FCA8FBAC
:10207C00002300FB05C5B21A2B4467EB030386460D
:10208C00C4E90023BDE8F0812DE9F843089E17460A
:10209C00804689461D4600F067F900FB05F3A0FB5E
:1020AC00074507FB0137B8EB04043D4469EB050514
:1020BC00C6E90045BDE8F883704700BF00292DE94B
:1020CC00F043C0F2A8800026002BC0F29E8081460F
:1020DC008E4690469C46174604460D46002B3DD135
:1020EC008A4259D9B2FA82F33BB1C3F120029D4026
:1020FC0020FA02F29F4015439C40390CB5FBF1F0DD
:10210C001FFA87FE01FB10550EFB00F3220C42EA6E
:10211C000545AB4209D9ED1900F1FF3280F00B8176
:10212C00AB4240F2088102383D44ED1AB5FBF1F3A5
:10213C0001FB13550EFB03FEA4B244EA0545AE4564
:10214C0008D9ED1903F1FF3280F0F780AE4540F26B
:10215C00F480023B43EA0043002203E08B420FD998
:10216C0000221346341C18BF012460424FF00005B6
:10217C0065EB45015840514000196941BDE8F083B9
:10218C00B3FA83F2002A40F089808B4202D3804557
:10219C0000F2E2800123E5E712B90123B3FBF2F769
:1021AC00B7FA87F8B8F1000F3BD1ED1B4FEA174C8B
:1021BC001FFA87FE0122B5FBFCF00CFB10550EFB41
:1021CC0000F3210C41EA0545AB4207D9ED1900F1AA
:1021DC00FF3102D2AB4200F2C3800846ED1AB5FBC8
:1021EC00FCF30CFB13550EFB03FEA4B244EA0545AD
:1021FC00AE4507D9ED1903F1FF3102D2AE4500F21D
:10220C00AD800B4643EA0043ACE752426FEA060648
:10221C0063EB43035BE7404261EB41014FF0FF3658
:10222C0052E707FA08F7C8F1200225FA02F34FEA41
:10223C00174CB3FBFCF11FFA87FE0CFB113324FA8D
:10224C0002F205FA08F50EFB01F92A43100C40EADC
:10225C000343994504FA08F407D9DB1901F1FF305F
:10226C0078D2994576D902393B44C9EB0303B3FBC9
:10227C00FCF00CFB10330EFB00F592B242EA034368
:10228C009D4207D9DB1900F1FF325FD29D425DD927
:10229C0002383B445D1B40EA01428CE7C2F120034B
:1022AC0028FA03F10CFA02FC41EA0C0C4FEA1C4030
:1022BC002EFA03F1B1FBF0F51FFA8CF700FB1511A8
:1022CC0029FA03F30EFA02FE07FB05F943EA0E0E98
:1022DC004FEA1E4343EA0141894508FA02F808D93E
:1022EC0011EB0C0105F1FF3332D2894530D9023D97
:1022FC006144C9EB0101B1FBF0F300FB131107FBC7
:10230C0003F71FFA8EFE4EEA014E774508D91EEBF5
:10231C000C0E03F1FF3117D2774515D9023BE64479
:10232C0043EA0543A3FB0889C7EB0E0ECE4509D340
:10233C0005D0002216E71046F7E613460AE794404C
:10234C004445F6D2013BF4E70B46E9E71046A1E71A
:10235C001D46CEE7014688E7134603E7023B51E7EB
:10236C0002383D443AE700BF2DE9F043002B44D13D
:10237C008A42154604464FD9B2FA82F70E464FB13F
:10238C00C7F12003B94020FA03F602FA07F50E4311
:10239C0000FA07F42F0CB6FBF7F01FFA85FE07FBCB
:1023AC0010620EFB00F1260C46EA0243994209D951
:1023BC005B1900F1FF3280F0EE80994240F2EB8025
:1023CC0002382B44591AB1FBF7F307FB13110EFB20
:1023DC0003FEA4B244EA01418E4508D9491903F120
:1023EC00FF3280F0DA808E4540F2D780023B43EA20
:1023FC00004000263146BDE8F0838B4247D8B3FA43
:10240C0083F6002E48D18B4202D3824200F2CF8059
:10241C0001203146BDE8F08312B90125B5FBF2F578
:10242C00B5FA85FCBCF1000F78D1491B2F0C1FFAB3
:10243C0085FE0126B1FBF7F007FB10110EFB00F235
:10244C00230C43EA01418A4207D9491900F1FF33B1
:10245C0002D28A4200F2BC801846891AB1FBF7F30B
:10246C0007FB13110EFB03FEA4B244EA014296458E
:10247C0008D9521903F1FF3180F09180964540F252
:10248C008E80023B43EA00403146BDE8F0830026D3
:10249C0030463146BDE8F083C6F1200422FA04F53B
:1024AC00B3402B4321FA04F74FEA1348B7FBF8FC6F
:1024BC001FFA83F908FB1C7720FA04FE01FA06F5D3
:1024CC0009FB0CF44EEA05054FEA154E4EEA074798
:1024DC00BC4202FA06F204D9FF180CF1FF3168D3A2
:1024EC008C463F1BB7FBF8F408FB147709FB04F987
:1024FC00ADB245EA0741894504D9C91804F1FF3545
:10250C005DD32C4644EA0C44A4FB0223C9EB010125
:10251C00994249D345D0204600266BE7CCF12004E4
:10252C0005FA0CF521FA04F32A0CB3FBF2F61FFAA8
:10253C0085FE02FB163820FA04F701FA0CF10EFBAB
:10254C0006F90F433C0C44EA0843994500FA0CF495
:10255C0007D95B1906F1FF3138D2994536D9023EBD
:10256C002B44C9EB0303B3FBF2F002FB10330EFB5D
:10257C0000F1BFB247EA0343994207D95B1900F156
:10258C00FF3721D299421FD902382B441746591ACA
:10259C0040EA06464EE7104614E7134627E70B467B
:1025AC0070E7B0409042B6D2601E002622E730465B
:1025BC0020E7BC4294D9ACF1020C1F4491E7894549
:1025CC009FD9023C19449DE73846DFE70E46C8E721
:1025DC000238294441E700BF014B1868704700BF1F
:1025EC0080000020024B0146186800F075B800BF4F
:1025FC0080000020024B0146186800F029B800BF8B
:10260C008000002010B5431E0A44914204D011F8FA
:10261C00014B03F8014FF8E710BD814210B501EBF7
:10262C00020301D3421E0BE09842FBD28118D21A4E
:10263C00D34204D013F8014D01F8014DF8E710BD59
:10264C00994204D011F8014B02F8014FF8E710BD84
:10265C0030B500293CD051F8042C0B1F1D49002A21
:10266C00B8BF9B180A680C4612B95A600B6030BD93
:10267C0093420DD219685818904201BF5A585218FB
:10268C001A60426823605A6030BD994203D80A46EA
:10269C0051680029F9D1146815199D420AD11B689B
:1026AC002344D0188842136012D108680344136085
:1026BC004B680CE002D90C23036030BD1C68181960
:1026CC00884201BF08684968001918605960536056
:1026DC0030BD00BF1801002070B5CC1C24F00304E1
:1026EC0008340C2C38BF0C24002C064603DA0C23BF
:1026FC003360002070BD8C42F9D3204A1368104619
:10270C001946A1B10A68121B0ED40B2A03D90A6010
:10271C008B188C501FE08B420BBF5A684A680260C2
:10272C005A6018BF0B4616E00B464968E9E7144D92
:10273C002B681BB9304600F025F82860304621463E
:10274C0000F020F8421C0346D1D0C51C25F003052F
:10275C0085420AD11C6003F10B001A1D20F0070002
:10276C00821A0AD05142995070BD3046E91A00F0D5
:10277C0009F80130BBD02B46ECE770BD18010020E6
:10278C001401002038B5064C00230546084623608A
:10279C00FDF75EFE431C02D1236803B12B6038BDEC
:1027AC001C010020034613F8012B002AFBD1181A38
:1027BC000138704762617369635F737472696E6725
:1027CC003A3A61743A205F5F6E20287768696368D3
:1027DC0020697320257A7529203E3D207468697321
:1027EC002D3E73697A6528292028776869636820EB
:1027FC00697320257A75290053544D333246313094
:10280C00330000002B00000046543830300000002C
:10281C002847616D656475696E6F20322900000070
:10282C00526164656B000000530000006E6F7420F1
:10283C00656E6F75676820737061636520666F7273
:10284C0020666F726D617420657870616E73696F4C
:10285C006E2028506C65617365207375626D6974A8
:10286C002066756C6C20627567207265706F72746F
:10287C0020617420687474703A2F2F6763632E671D
:10288C006E752E6F72672F627567732E68746D6C20
:10289C00293A0A202020200025733A205F5F706FB0
:1028AC00732028776869636820697320257A7529F5
:1028BC00203E20746869732D3E73697A652829203F
:1028CC0028776869636820697320257A7529006206
:1028DC00617369635F737472696E673A3A61743AD3
:1028EC00205F5F6E202877686963682069732025F4
:1028FC007A7529203E3D20746869732D3E73697A80
:10290C006528292028776869636820697320257AEF
:10291C0075290062617369635F737472696E673ADB
:10292C003A636F70790062617369635F7374726983
:10293C006E673A3A636F6D706172650062617369BC
:10294C00635F737472696E673A3A5F535F63726563
:10295C006174650062617369635F737472696E6739
:10296C003A3A65726173650062617369635F73748F
:10297C0072696E673A3A5F4D5F7265706C61636540
:10298C005F6175780062617369635F737472696EFD
:10299C00673A3A696E736572740062617369635F5A
:1029AC00737472696E673A3A7265706C6163650034
:1029BC0062617369635F737472696E673A3A6173CB
:1029CC007369676E0062617369635F737472696EB9
:1029DC00673A3A617070656E640062617369635F37
:1029EC00737472696E673A3A726573697A650062DC
:1029FC00617369635F737472696E673A3A5F535FB0
:102A0C00636F6E737472756374206E756C6C206E6C
:102A1C006F742076616C69640062617369635F73C3
:102A2C007472696E673A3A62617369635F73747248
:102A3C00696E670062617369635F737472696E6754
:102A4C003A3A737562737472002D2B7858303132A8
:102A5C003334353637383961626364656630313208
:102A6C0033343536373839414243444546002D2BF3
:102A7C0078583031323334353637383961626364E3
:102A8C006566414243444546002D3031323334357E
:102A9C003637383900474D540048535400414B5396
:102AAC005400505354004D53540043535400455359
:102ABC005400415354004E53540043455400495361
:102ACC005400454554004A53540043000000000094
:102ADC0000000000000000000000000000000000EA
:102AEC0000000000000000000000000000000000DA
:102AFC0000000000000000000000000000000000CA
:102B0C0000000000000000000000000000000000B9
:102B1C0000000000000000000000000000000000A9
:0C2B2C000000000000000000000000009D
:082B380090F5FF7F0100000091
:102B400088000020000000000000000000000000DD
:102B5000010203040607080900A24A04552A0008D6
:102B600000000000D82A0008F82A0008182B0008E6
:102B70000000000000000000000000000000000055
:102B8000D62A00080000000000000000000000003D
:102B90000000000000000000000000000000000035
:102BA0000000000000000000000000000000000025
:102BB0000000000000000000000000000000000015
:042BC00020000020D1
:04000005080001E509
:00000001FF
